:020000040800F2
:1000000098A90020310200087F0A00081D09000895
:10001000E9090008D7050008F93C000800000000C5
:10002000000000000000000000000000713900081E
:100030006D07000800000000530500083D3A000865
:100040004B0200084B0200084B0200084B0200085C
:100050004B0200084B0200084B0200084B0200084C
:100060004B0200084B0200084B0200084B0200083C
:100070004B0200084B0200084B0200084B0200082C
:100080004B0200084B0200084B0200084B0200081C
:100090004B0200084B0200084B020008050800084C
:1000A0004B0200084B0200084B0200084B020008FC
:1000B0004B0200084B0200084B0200084B020008EC
:1000C0004B0200084B0200084B0200084B020008DC
:1000D0004B0200084B0200084B0200084B020008CC
:1000E0004B0200084B0200084B0200084B020008BC
:1000F0004B0200084B0200084B0200084B020008AC
:100100004B0200084B0200084B0200084B0200089B
:100110004B0200084B0200084B0200084B0200088B
:100120004B0200084B0200084B0200084B0200087B
:100130004B0200084B0200084B0200084B0200086B
:100140004B0200084B0200084B0200084B0200085B
:100150004B0200084B0200084B0200084B0200084B
:100160004B0200084B0200084B0200084B0200083B
:100170004B0200084B0200084B0200084B0200082B
:100180004B0200084B02000800F002F800F041F8B2
:100190000AA090E8000C82448344AAF10107DA45E2
:1001A00001D100F036F8AFF2090EBAE80F0013F0F3
:1001B000010F18BFFB1A43F0010318471441000058
:1001C00034410000103A24BF78C878C1FAD85207E9
:1001D00024BF30C830C144BF04680C6070470000C1
:1001E0000023002400250026103A28BF78C1FBD840
:1001F000520728BF30C148BF0B607047642900F028
:100200009380002070471FB504F022F81FBD10B581
:1002100010BD00F051F91146FFF7F5FF03F0AEFEF7
:1002200000F06FF903B4FFF7F2FF03BC03F065FDC4
:100230000948804709480047FEE7FEE7FEE7FEE77A
:10024000FEE7FEE7FEE7FEE7FEE7FEE704480549B6
:10025000054A064B70470000C53A000889010008AE
:100260009895002098A9002098990020989900203E
:1002700072B6704762B67047EFF3108072B670477F
:1002800080F31088704730BF704720BF7047B0FAC6
:1002900080F0704790FAA0F0B0FA80F0704790FAC2
:1002A000A0F07047704700000FB4044910B503AACE
:1002B000029800F0D3F810BC5DF814FB0400002095
:1002C0002DE9F0410E460446002020622046E168F8
:1002D000884730B3252805D0D4E901219047206A0A
:1002E000401CF2E7E168204600278847050018D047
:1002F000A5F14100192802D820354FF40067324695
:10030000294620462760FFF779FF40B1012804D035
:10031000F61D26F007060836D8E7361DD6E728462C
:10032000DAE7206ABDE8F0812DE9F04106460024B5
:1003300010687529314616A510D0AFF3008000284B
:1003400002DA404213A507E031688A0701D512A5F9
:1003500002E0490704D511A5012401E0AFF30080B4
:1003600000210A2206F1240709E0B0FBF2FCB0FBF1
:10037000F2F302FB1C00303078541846491C002868
:10038000F3D123462A463046BDE8F04100F00CB8D0
:10039000000000002D0000002B00000020000000E5
:1003A00070477047704770472DE9F0470D469946F2
:1003B0009246044600F124080168880604D5E069E5
:1003C00021F01001216000E00120A84201DD471B5F
:1003D00000E00027A1697A1902EB0900081AA06160
:1003E0002078C00602D42046AFF30080002608E043
:1003F000D4E901211AF806009047206A401C761CB7
:1004000020624E45F4DB2078C0060AD52046AFF3C3
:10041000008006E0D4E9012130209047206A401C8A
:100420002062381EA7F10107F4DC07E0D4E90121BE
:1004300018F805009047206A401C2062281EA5F18C
:100440000105F3DC2046AFF300802078000602D5DA
:100450000220BDE8F0870120FBE70000074B70B5E4
:100460000D467B4400F011F80446284600F020F8C1
:1004700010B14FF0FF3070BD204670BD97380000BE
:1004800001694A1C02610878704700B58FB0CDE958
:1004900001310021059105497944CDE90310114648
:1004A0006846FFF70DFF0FB000BD0000E5FFFFFF3E
:1004B000007B00F080007047754600F02BF8AE46D8
:1004C00005006946534620F00700854618B020B560
:1004D000FFF7BCFEBDE820404FF000064FF00007DC
:1004E0004FF000084FF0000B21F00701AC46ACE8DC
:1004F000C009ACE8C009ACE8C009ACE8C0098D4649
:10050000704710B50446AFF300802046BDE81040A8
:10051000FFF788BE004870473495002022484FF608
:10052000FF710170002080F309882048016881F381
:1005300008881F484FF08051016062B6FEE71C48F2
:100540004FF080510160704719484FF080510160B1
:10055000704772B6EFF3098050B11EF0100F08BF5C
:1005600020ED108A203880E8F00F124909680860F1
:1005700000B5114880475DF804EB104810490A782F
:1005800002700C480F490A680260106890E8F00F8A
:1005900020301EF0100F08BFB0EC108A80F30988DD
:1005A0004EF0040E62B6704722ED00E050000020CD
:1005B00004ED00E01C0100205D180008AE000020E2
:1005C000AF000020200100201FB5684603F088F925
:1005D000019804B010BDFEE7054910B50020486041
:1005E00000F0A6F800F006F8BDE8104000F086B86C
:1005F000340000202DE9F041104F002635463E80A2
:100600007E80BE60FE607E61BE613E61FFF734FEAB
:10061000804600247E6100F049F800F057F87869C0
:10062000641C24040544240CF4D0C7E90456404655
:10063000BE61BDE8F041FFF723BE0000340000209A
:1006400003490969884201D9401A70470020704760
:100650003400002010B5FFF70FFE04494C69FFF786
:100660000FFE2046BDE81040FFF7EABF340000202F
:1006700010B5FFF7EFFF0446FFF7FEFD034A002128
:100680005161FFF7FDFD204610BD00003400002041
:1006900010B5FFF7F1FD04498C69FFF7F1FD204625
:1006A000BDE81040FFF7CCBF3400002010B5064C69
:1006B0002088401C2080608810B900F051F8A060AC
:1006C0006088401C608010BD3400002010B50A4CCA
:1006D0006088401E0004000C60800CD100F040F8DF
:1006E000E060A168401A6169814200D26061A1693D
:1006F000814200D2A06110BD3400002010B5FFF788
:10070000BBFD0446FFF7D2FF1021054800F06DF94C
:10071000FFF7DCFF2046BDE81040FFF7B1BD000049
:10072000207B002001494860704700003400002011
:1007300010B5FFF749FF08490A6842F080720A6065
:10074000064900224A600A6842F001020A60BDE8D8
:100750001040FFF7E7BF0000FCED00E0001000E0F4
:100760000148406870470000001000E0704700003A
:10077000F8B5054614480078012806D00024601E0C
:100780004FF4FA7600EB45051AE0104C20888542BC
:1007900005D3B5FBF0F06A46002101F093F82088FC
:1007A000B5FBF0F100FB1150002804D04FF47A7132
:1007B000484300F00DF8F8BD304600F009F8641C1D
:1007C000A542F9DCF8BD00008000002002000020F6
:1007D00070B54FF0E0256C690949AB690978484369
:1007E0000021AA699A42FCD002D2A3EB020302E0E4
:1007F000A4EB02063344194413468142F1D370BD81
:100800000000002010B500F021FA402000F02CF884
:10081000012802D1402000F021F8802000F024F8C7
:10082000012802D1802000F019F84FF4807420468E
:1008300000F01AF8012802D1204600F00FF84FF41A
:100840000074204600F010F8012802D1204600F084
:1008500005F8BDE8104000F009BA00000149086041
:1008600070470000143C0140034A01460020126812
:100870000A4200D001207047143C0140F0B500222C
:1008800001274FF0030C0B6807FA02F52B40AB422F
:100890002CD1066853000CFA03F4A64306600E79C7
:1008A000D0F800E09E4046EA0E0606600E79012E62
:1008B00001D0022E12D18668A64386604E79D0F808
:1008C00008E09E4046EA0E0686604668AE434660F3
:1008D00045688E799640B6B235434560C568A543F4
:1008E000C560CC799C40C3681C43C460521C102A6C
:1008F000C9D3F0BD4B07DB0E9A40C90810B500EB19
:100900008100016A0F249C40A1430162016A1143E6
:10091000016210BD4183704701837047FEE700000C
:100920001CB50121102002F0C3FF08200090012017
:100930008DF8040002218DF805108DF807000020C5
:100940008DF8060069460248FFF798FF1CBD0000BD
:10095000001002401CB50121102002F0A9FF102058
:10096000009001208DF8040002218DF805108DF80B
:10097000070000208DF8060069460248FFF77EFF59
:100980001CBD0000001002401CB50121402002F0F7
:100990008FFF4FF40070009001208DF804000221B9
:1009A0008DF805108DF8070000208DF806006946C7
:1009B0000148FFF763FF1CBD00180240012000F052
:1009C00001B8000070B50446FFF756FC0546FFF776
:1009D0006DFE04480460FFF779FE2846BDE87040CC
:1009E000FFF74EBC2C000020FEE70A46002100F075
:1009F00023B800000D480E490246C0E9001200214C
:100A00008160C160016141618161C1610162016315
:100A1000C162416200F148018163C1634FF4D84172
:100A2000016441640348026070470000D80E002052
:100A3000484541503000002010B5002A1ED0002843
:100A40001CD000231C46641C41EA0323042CFAD367
:100A500010F0030404D109E0521E00F8011B641CCD
:100A600022B1042CF8D301E008C0121F042AFBD2E3
:100A700002E000F8011B521E002AFAD110BD704797
:100A80007047000002480068002800D00047704707
:100A90006400002010B5044600F0BEF8464800226D
:100AA0000A210270454802704548027045480260BC
:100AB000454802604548027045480270454802704A
:100AC000454802604548026045480260454802705A
:100AD00045480068B0FBF1F04449086044490868A3
:100AE00030B14448006818B1096804C0491EFCD1FF
:100AF000414802604148026041480260414802604A
:100B00004148026041480260414802604148027029
:100B100001F066FC01F022FD204600F073FF208802
:100B2000002847D1204601F069FA2088002841D1E9
:100B3000204601F06FFA208800283BD1204601F0C2
:100B400005FB2088002835D1204601F073FC208861
:100B500000282FD1204601F029FE2088002829D125
:100B6000204602F08BF82088002823D1204601F08F
:100B7000B9F9208800281DD1204601F04DF82088C1
:100B8000002817D1204602F0E1FC2088002811D16E
:100B9000204601F0D1FF208800280BD1204602F02A
:100BA00029FD2088002805D100F02AFFBDE810406B
:100BB000FFF766BF10BD0000780000208000002015
:100BC000C80000201C01002020010020AE000020F1
:100BD000AF000020B0000020BC000020C0000020BA
:100BE000C4000020D0000020A4420008CC00002057
:100BF000804200087C420008580000205C00002071
:100C00006000002064000020680000206C000020CC
:100C100070000020FE00002030B5094C0020094B78
:100C20000246216801E004C1401C1D68A842FAD3B5
:100C30002068054900EB8500001F086030BD0000FA
:100C40007C420008804200085000002005480078DF
:100C5000012805D104490878FA2801D2401C0870FF
:100C6000704700008000002078000020194810B56F
:100C7000007801282DD1FFF7FFFA174904460878BC
:100C800010B3401E10F0FF0008701DD1134800780B
:100C9000D0B901F093FB12490870124900EB4000F3
:100CA00051F82000104908601049096888420BD0AB
:100CB00050F8901F491C01600D480168491C0160F3
:100CC0000C494FF0805008602046BDE81040FFF707
:100CD000D7BA10BD8000002078000020C800002096
:100CE000AF0000205C910020200100201C010020AA
:100CF000F400002004ED00E0164810B5007800284C
:100D000026D115480078002822D1FFF7B5FA04460D
:100D100001F054FB11490870114900EB400051F8F3
:100D20002000104908601049096888420BD050F82B
:100D3000901F491C01600D480168491C01600C4965
:100D40004FF0805008602046BDE81040FFF798BA89
:100D500010BD000078000020C8000020AF00002077
:100D60005C910020200100201C010020F4000020E4
:100D700004ED00E070B504461248007810B146F664
:100D800062501DE010480078012802D045F68960C5
:100D900016E00E4D2878FA2802D345F209200FE01C
:100DA000FFF76AFA0646FFF781FC2878401C287096
:100DB00001F09CFCFFF78AFC3046FFF761FA002047
:100DC000208070BD7800002080000020C800002036
:100DD0002DE9F04116460C460546FFF74DFA074649
:100DE000FFF764FC29460D480025012901D0057054
:100DF00001E0012101700A480CB1046005E00949D5
:100E00000A220968B1FBF2F10160FFF75FFC384686
:100E1000FFF736FA3580BDE8F0810000D0000020F1
:100E2000CC000020A442000870B5044618480078A1
:100E300010B146F6655029E016480078012802D026
:100E400045F6896022E0144E307890B1FFF714FA2D
:100E50000546FFF72BFC3078401E10F0FF00307085
:100E60000AD0FFF733FC2846FFF70AFA46F663502C
:100E70000CE046F6645009E001F046FCFFF726FC62
:100E80002846FFF7FDF9FFF737FF0020208070BDEF
:100E90007800002080000020C800002070B50F4DB1
:100EA0000446287818B145F68A60208070BD01F0AC
:100EB00085FA0B4908700B4908700B4900EB40009C
:100EC00051F820000949086009490860012028708C
:100ED000FFF724FB43F69920E7E70000800000209D
:100EE000AF000020AE0000205C9100202001002017
:100EF0001C0100202DE9F0410746FFF7BDF904462B
:100F0000FFF7D4FB2E48002505602E4805802E48AB
:100F100005802E4805602E4805602E4805602E4845
:100F200005602E4805602E480581FFF7CFFB20465F
:100F3000FFF7A6F9FFF7A0F90646FFF7B7FB294828
:100F4000046818E0FFF798F90646FFF7AFFBC4F80E
:100F5000B450C4F8B85044F8785F2563A561A58201
:100F6000E5826562A562FFF7FBFB44F8200FA4F160
:100F700034008581A46AFFF7A9FB3046FFF780F9AA
:100F8000002CDFD1FFF778F90646FFF78FFB1648F4
:100F9000046806E0FFF770F90646FFF787FBA585B2
:100FA000A469FFF793FB3046FFF76AF9002CF1D1F3
:100FB00002F0EAF902F0ECFB3D80BDE8F0810000B0
:100FC000940000208E000020DE000020F0000020B1
:100FD000040100200C0100207C000020C000002043
:100FE00050910020F8000020B4000020F8B504461D
:100FF0006946244800F008FCBDF8000058BB6A466A
:101000000021022000F05EFCBDF8000018BBFFF7D5
:1010100033F90746FFF74AFB1B4E00253560FFF703
:1010200055FB3846FFF72CF9184919480A68036838
:101030009A4202D9B2FBF3F010B90A21B2FBF1F0E7
:101040006A46002100F03EFC69460E4800F0F2F9C5
:10105000BDF8000008B12080F8BDFFF70DF9074684
:10106000FFF724FB0B480C490560306808600B490A
:1010700001200870FFF72AFB3846FFF701F92580A9
:10108000F8BD00006C940020E0000020A44200089D
:1010900090420008F0000020E4000020EC00002056
:1010A00002480068002800D0004770476800002010
:1010B0002DE9FF4F83B004467248DDE91785DDE96D
:1010C00010970078DDF854A0139E10B147F24A1033
:1010D0002AE04CB1059850B167B16B480068864270
:1010E0000BD246F630601FE047F2AD101CE047F22D
:1010F0004F1019E046F62F6016E01298B04202D366
:1011000046F6316010E046F27320B9F1200F0BD2A1
:101110005FEA090103D0B9F11F0F02D008E05B4973
:1011200000E05B498C4203D0288007B0BDE8F08F17
:10113000204601F0B3FD4FF0000BA5F800B05FEAC8
:10114000C8700AD05FEA887007D5384600215A4631
:1011500001E004C0491CB142FBD31298CDE90068FC
:1011600007EB8005DDE905012B463A4600F0AEFAB3
:101170000599A1620699E1620499216284F8379089
:10118000C4F854A0A56020605FEA0A0024D0A065DE
:1011900016986762A6636060A4F83C8000205946F8
:1011A00004EB8002401CD16710F0FF00F8D004F17E
:1011B0006400149900F07EFF204600F075F8FFF7F8
:1011C0005BF80646FFF772FA324D2878401CC0B231
:1011D0002870012803D004E02F480068D7E701F009
:1011E00085FAFFF773FA3046FFF74AF894F83700AC
:1011F00001F000F9204601F0F7F9204601F010FD5A
:1012000026490888401C088025480078012821D0FC
:10121000FFF732F80446FFF749FA2878401E10F02D
:10122000FF0129700ED101F06FFA1E48008848B105
:10123000FFF74CFA2046FFF723F807B0BDE8F04F60
:1012400001F030BAFFF742FA07B02046BDE8F04F90
:10125000FFF716B8FFF710F80446FFF727FA2878CB
:10126000401E10F0FF01297001D101F04DFAFFF787
:101270002DFA2046FFF704F807B0BDE8F04FFFF75E
:101280003BBD000078000020A042000888900020AC
:10129000C08F0020C8000020CC000020FC000020EF
:1012A000800000208C00002002490968002900D03D
:1012B00008477047580000202DE9F0410446524885
:1012C0000D46007810B147F24E100AE04F488442B4
:1012D00002D147F24C1004E04D48844204D147F259
:1012E0004D100880BDE8F0815CB9FEF7C5FF0646E9
:1012F000FFF7DCF947480468FFF7E8F93046FEF7E6
:10130000BFFFFEF7B9FF0746FFF7D0F9424E30782E
:10131000401CC0B23070012801D101F0E7F9FFF79D
:10132000D5F93846FEF7ACFF94F8360008283DD2D0
:10133000DFE800F004080C0C1C080C0C204601F03F
:1013400087F913E0204602F003F80FE0204601F091
:10135000FFFF94F83400072808D2DFE800F0070404
:10136000070404040400204600F09BFF04F164001D
:1013700000F086FE204600F055F8204601F062FCA1
:1013800026490888401E0880204601F087FCFF207F
:1013900084F83600FEF770FF0446FFF787F93078CF
:1013A000401E10F0FF01317021D022E0FEF764FFF3
:1013B0000446FFF77BF93078401E10F0FF013170D2
:1013C0000CD101F0A1F91648008838B1FFF77EF979
:1013D0002046FEF755FF01F065F904E0FFF776F9C6
:1013E0002046FEF74DFF46F62D6028807AE701F093
:1013F0008BF9FFF76BF92046FEF742FF00202880AB
:10140000BDE8F041FFF778BC78000020C08F0020D5
:10141000889000201C010020C8000020FC00002053
:101420008C00002002490968002900D00847704755
:101430005C0000207FB50D460446FEF71DFF064602
:10144000FFF734F91CB113480068844208D1FFF754
:101450003DF93046FEF714FF47F2571028807FBD54
:10146000FFF734F93046FEF70BFF0B48007850B118
:101470000022CDE902250092134601922146074839
:1014800000F0FEFB7FBD04B029462046BDE8704059
:1014900001F018BD1C010020780000205452455373
:1014A00002490968002900D0084770476000002001
:1014B0002DE9F0478146574814461D460078884676
:1014C00010B146F2AE1006E0080006D0B1F5004FAC
:1014D00003D045F6256018803DE0002604B1266063
:1014E000FEF7CAFE8246FFF7E1F84B4F3868416CC1
:1014F000D9B1491E884641640CB1006C2060FFF7E9
:101500002FF939680A6C801AC1F8A400D1F8A82014
:10151000824201D2C1F8A800FFF7D8F85046FEF782
:10152000AFFE2E804046BDE8F0875FEA084007D551
:10153000FFF7CCF85046FEF7A3FE46F2B01009E0E4
:101540003648017849B1FFF7C1F85046FEF798FEDA
:1015500046F6635028800020E5E7012180460170AF
:1015600001F0C4F8FFF7B2F85046FEF789FE0021FB
:101570004B460722084600F0F5FDFEF77DFE81464A
:10158000FFF794F898F80000401E10F0FF0088F86C
:10159000000001D101F0B8F8FFF798F84846FEF7CF
:1015A0006FFEFFF7A9FBFEF767FE8046FFF77EF8A8
:1015B000396891F8350030B1012816D003281AD0C7
:1015C00046F62E601BE074B1086C2060FFF7C8F887
:1015D00039680A6C801AC1F8A400D1F8A8208242A8
:1015E00001D2C1F8A8002E800AE00CB1086C20607E
:1015F00046F2A91003E004B1266047F2D920288002
:101600003868446CFFF762F84046FEF739FE204622
:1016100089E70000780000201C010020C80000209D
:101620002DE9F0470546274816460F4600781C4628
:1016300010B147F259100AE046F2D5203FB136B159
:10164000FEF71AFE8146FFF731F81DB104E018805D
:10165000BDE8F0871C4805684FF00008286858B1BD
:1016600095F83C00C00713D0FFF730F84846FEF766
:1016700007FE0020696A1AE0FFF728F84846FEF7DF
:10168000FFFDC7F8008047F25210C6F800800AE05C
:10169000FFF71CF84846FEF7F3FDC7F8008047F255
:1016A0005410C6F800802080D2E7401C091D0A684B
:1016B000002AFAD03860A96B081A3060A4F80080BC
:1016C000C6E70000780000201C01002030B5044669
:1016D00003984FF4805502EB800020F007000022B1
:1016E00040E90252152540F80C5C142540F8105CC6
:1016F000132540F8145C122540F8185C112540F8B9
:101700001C5C102540F8205C092540F8245C082565
:1017100040F8285C072540F82C5C062540F8305C32
:10172000052540F8345C042540F8385C032540F872
:101730003C5C022540F8405C012540E912252A0660
:1017400040E914422F4A40F8542C4FF0123240F82E
:10175000582C4FF0033240F85C2C4FF0023240F826
:10176000602C40E91A13312140F86C1C302140F8FC
:10177000701C292140F8741C282140F8781C27216E
:1017800040F87C1C262140F8801C252140F8841C50
:10179000242140F8881C232140F88C1C222140F889
:1017A000901C212140F8941C202140F8981C1921FC
:1017B00040F89C1C182140F8A01C172140F8A41CDC
:1017C000162140F8A81C4FF0113140F8AC1CD10094
:1017D00040F8B01C4FF0093140F8B41C910040F8BB
:1017E000B81C4FF0073140F8BC1C4FF0063140F8F0
:1017F000C01C4FF0053140F8C41D510040F8041DD5
:1018000030BD0000C52F00081FB5104A904202D11C
:1018100047F25B1004E00E4A904203D147F25C109D
:1018200008801FBD0B4A127852B10022CDE9022177
:101830000146009213460192074800F021FA1FBDAD
:1018400004B0BDE8104001F08DBC0000C08F002046
:1018500088900020780000205453555370B51548E7
:10186000006800B18047FEF77BFF134C134A2168E4
:101870001268914207D0D1F89830C31A41F8943FCA
:101880008D682B448B60C2F89800FEF7F1FE21684A
:10189000D1F8B420824201D2C1F8B400084AD1F88C
:1018A000B8301068834201D2C1F8B800002010603F
:1018B00070BD00006C0000201C01002020010020F1
:1018C000C40000202DE9F041804636480D461446FC
:1018D000007810B147F2752020E0334E307810B117
:1018E00046F663501AE045B1022D06D0042D07D00C
:1018F000082D02D045F6256010E0B8F1000F0BD09E
:10190000FEF7BAFC0746FEF7D1FE3078401CC0B2A5
:101910003070012805D006E047F27E201080BDE837
:10192000F08100F0E3FEFEF7D1FE3846FEF7A8FC9A
:101930001E4F0121234638682A4680F8361041465A
:1019400001F09AFC208898B1FEF796FC0446FEF759
:10195000ADFE3078401E10F0FF01317001D100F073
:10196000D3FEFEF7B3FE2046BDE8F041FEF788BC8B
:10197000386800F06DFEFEF77FFC0546FEF796FE28
:101980003078401E10F0FF01317001D100F0BCFE34
:10199000FEF79CFE2846FEF773FCFFF7ADF900202A
:1019A0002080BCE778000020C80000201C01002037
:1019B00000B585B000F01CF8FEF7D2FE04AA0021A5
:1019C00003920091CDE901100648074900230078F1
:1019D0001A4600EB400001EB8001044800F050F98A
:1019E00005B000BDAE0000205C9100205449434B7F
:1019F00002480068002800D00047704770000020AF
:101A000070470000034A00211160034A11800180E1
:101A100070470000980000209C0000202DE9F05F36
:101A20009A4690460D4604460A9EFEF725FC8346DC
:101A3000FEF73CFE5FEA080023D0012807D0B0F58E
:101A4000004F1ED06FF4004118EB010F11D1206A36
:101A5000A843C4E9080A208A04F108054FF00009E8
:101A600090B14D4F3878401CC0B23870012815D065
:101A700016E0FEF72BFE5846FEF702FC45F6256001
:101A80006CE0206A2843E4E7FEF720FE5846FEF7A4
:101A9000F7FBA6F80090206ABDE8F09F00F026FE54
:101AA000FEF714FE5846FEF7EBFB2D6833E090F886
:101AB00088106D6801F00F0101291BD0022921D087
:101AC00004290DD0082910D0FEF7D6FB0446FEF7F6
:101AD000EDFD3878401E10F0FF0139702AD036E055
:101AE000216AD0F88020114009E0216AD0F88020D6
:101AF00011400BE0D0F88010236A0A4699438A42CD
:101B000005D007E0D0F88010226A914311B1524607
:101B100000F046F815B1A8680028C8D1FEF7ACFB64
:101B20000546FEF7C3FD3878401E10F0FF00387000
:101B300017D018E000F0E8FD1848008838B1FEF72B
:101B4000C5FD2046FEF79CFB00F0ACFD04E0FEF76F
:101B5000BDFD2046FEF794FB43F6FF2030800020B9
:101B60009AE700F0D1FDFEF7B1FD2846FEF788FBAD
:101B70005FEA084001D4FFF7BFF8FEF77DFB05469A
:101B8000FEF794FD246AFEF7A1FD2846FEF778FBD8
:101B9000A6F8009020467FE7C80000208C000020B7
:101BA00070B50025C0F8841080F8355080F83450A6
:101BB0000446026490F8360008280ED2DFE800F0F0
:101BC0000D0D04040D0D0A0A204601F06DF984F88C
:101BD000365002E0042084F836002046BDE870400C
:101BE00000F05FBB0A4C0B4DFEF746FB0646FEF7C6
:101BF0005DFD2068401C20602868401C2860FEF7BE
:101C000065FD3046FEF73CFBFEF73CFFECE70000CD
:101C100074000020E000002000B50E4A89B00021C9
:101C200011600B2205910691CDE907200A480B4A65
:101C30000B4B006812681B680292CDE903011F205C
:101C4000CDE900030023074A07A10C48FFF730FA4B
:101C500009B000BD74000020644200086042000822
:101C60005C420008E51B000875432F4F532D49497E
:101C7000492049646C65205461736B00C08F00205B
:101C80002DE9F84F1D46DDE90CB4DDE90AA9164639
:101C90000F468046FEF7F0FA0090FEF707FD1D495B
:101CA0001D4A0888128890422DD2401C80B20880BC
:101CB0001A490A88824200D20880194A0121106814
:101CC000C0F80080C0E902760582C0F814A0A0F830
:101CD0001890C0F81CB04068106012480181124989
:101CE00001604160002000F085FB1048007808B1D9
:101CF0000F49087000202080FEF7E8FC0098BDE83E
:101D0000F84FFEF7BDBA0B480188491C018044F228
:101D10005360F0E78C0000206C4200088E00002029
:101D2000840000205C91002088900020AE000020FC
:101D3000B0000020900000203EB5374C374A02AB7F
:101D4000206801688D1A914245D015DC344A891803
:101D50002DD0344A891822D0334A891832D0334AD8
:101D6000D14208D1C169CDE90013038B028AC16851
:101D7000806800F0F7FF3EBD2D4969181DD02D4A3F
:101D8000891823D02C4AD142F5D1C169CDE900137D
:101D9000038B028AC168806800F058FB3EBD009347
:101DA000028BC36941698068FFF738FE3EBD018B35
:101DB000C269806800F006FD3EBD8068194601F0EA
:101DC00081F83EBD018BC269806822E080681946B7
:101DD00001F0C8F93EBD19481949007800EB4000F0
:101DE00001EB800000F0AEFC206802AB0021C2696C
:101DF000144801F0F3F814490868401E0860E9D15E
:101E0000124800680860FEF7ABFC024602AB0021F6
:101E10000F4801F0E3F83EBD880000205449434BD1
:101E2000ADBAB2BE0DF90BFAF2F8F7FF0006F6FFF5
:101E300000F7FDF700FFEFFF03FE0FFEB0000020EC
:101E40005C910020A49300201801002014010020C0
:101E50006C9400201F4E204C0025204FFEF70CFAFA
:101E60008046FEF723FC208820B3FEF72FFC404677
:101E7000FEF706FAFEF774FC8046FFF75DFFFEF7FB
:101E80006FFC3168A0EB0800814200D23060FEF7A1
:101E9000F3F98046FEF70AFC38684068386020880D
:101EA000401E2080FEF712FC4046FEF7E9F9002DA7
:101EB000D4D0D1E70A49002008810860486000F0CA
:101EC000A9FAFEF703FC4046FEF7DAF9FEF714FF25
:101ED000C2E70000940000208C0000208800002051
:101EE0005C910020F0B52F492F4D89B000240C8063
:101EF000296831B12D4E3188022905D244F254614E
:101F000035E044F2526132E029490023294F0C6048
:101F1000296801F1200210E041F8087B5B1C41F8C0
:101F2000084B9BB241F8044C21F8104B41F80C4C83
:101F300021F8084C41F81C2C2032B6F800C063454B
:101F4000EAD32A6841F81C2C1B490A601B490A6025
:101F50001B491D4A0C801B490C80116851B11B495B
:101F60001B4D0B682D68AB4207D244F256610180CD
:101F700009B0F0BD44F25561F9E7032305940694D6
:101F8000CDE9073008681349126800230968CDE9D4
:101F900003040094CDE901210F4A10A11648FFF770
:101FA00087F8E5E790000020684200086C420008CE
:101FB000940000204E4F4E458400002088000020F1
:101FC0008C0000208E00002070420008784200083B
:101FD000A042000874420008551E000875432F4FA8
:101FE000532D494949204953522051756575652043
:101FF0005461736B0000000088900020034A0021A8
:102000001160034A1180018070470000A000002089
:10201000A4000020F0B5174E316859B1164F398829
:1020200059B13B8831685B1E9DB2002301F110025B
:102030001C460FE045F21E7101E045F21D71018062
:10204000F0BDE1E802245B1C21F8084B9BB241F88B
:10205000044C1032AB42F4D30C604C600C81CC6069
:10206000064932680A603A888A80CC800C810480F4
:10207000F0BD000088420008844200085091002012
:1020800010B5428992B10A4903680C681C60436824
:102090000B60CB8844891B1BCB808B8844892344ED
:1020A0008B8000214181818101604160104610BD1B
:1020B00050910020018100214181818101604160B6
:1020C00070470000F0B54489DDE905E60589AC42BA
:1020D00002D346F293501EE01B4DAF88CFB12C685F
:1020E0007F1ED4F800C0C5F800C0AF80EF887F1C09
:1020F000BFB2EF80B5F808C0BC4500D22F81478938
:10210000002557B1DB060ED403681C60046025600F
:102110000CE045F21D703080F0BD04600123446086
:102120004381256005E043682360446043895B1C6C
:102130004381878943899F4200D2838161602281E4
:10214000C4F80CE03580F0BD50910020034A002116
:102150001160034A1180018070470000A800002030
:10216000AC0000202DE9F041114D07460C462868CF
:102170000026194680F8342080F8356000F03AFDDA
:1021800064B1FC6004F1080601223946286800F0B9
:1021900011F83946304600F057F802E02868C68743
:1021A000066320462968BDE8F04100F01BB8000036
:1021B0001C01002010B5C2870024234601630EE0F5
:1021C0004B6041F8103B641C41F8103BA4B241F84D
:1021D0000C3C21F8083C41F8043C41F8180C9442AE
:1021E000EED310BD38B14268C1F8C4208168896857
:1021F000096AC161704791F83400022803D00728AA
:1022000003D004A002E004A000E005A0C1F8C400CF
:1022100070470000200000005461736B20510000E3
:102220005461736B2053656D0000000005A2C1F876
:10223000C420816811B18968096A00E001A1C16107
:10224000704700002000000030B58A68002592F831
:10225000374002891AB1521C028102680BE0012248
:1022600002814D600D60016014E0936893F837308F
:10227000A34203D85268002AF7D107E032B11368AD
:1022800053B1C1E900325960116030BD4D60426800
:102290000A605160416030BD1160C1E900520160C7
:1022A00030BD70B50646C58F046B07E0E068214677
:1022B000083000F009F86D1EADB22034002DF5D1C4
:1022C0000020F087306370BD10B502890024012A18
:1022D0000BD00A6862B14B6873B153601A6002890F
:1022E000521E02814C600C6010BD04604460F6E731
:1022F0004A6814600260F2E754604260EFE7F8B5A4
:102300000C46054691F836100026069808293BD25F
:10231000DFE801F03A3A04043A3A202094F8341005
:10232000032911D0E265A4F86030206435B120465D
:10233000FFF7B7FF21462846FFF778FF204600F059
:10234000B3FD84F836601BE000902146284600F07B
:1023500022F8EBE794F83410032916D0E265A4F8CC
:1023600060302064204600F0F3FF35B12046FFF7CF
:1023700098FF21462846FFF759FF042084F83600CD
:1023800084F8356084F83460F8BD00902146284612
:1023900000F001F8E6E770B50C6B049DC98F0AE008
:1023A000E668864204D1C4E904022383E56170BD76
:1023B000491E89B220340029F2D170BD10B5002425
:1023C000064802E02034E4B2001D01680029F9D07B
:1023D0000846FDF75CFF2044C0B210BD5400002049
:1023E0000020034A014642F82010401CFBD07047F1
:1023F0005400002000F01F0241090120C2F11F0219
:102400009040034A52F82130034342F8213070478C
:102410005400002000F01F0241090120C2F11F02F8
:102420009040034A52F82130834342F821307047EC
:1024300054000020034A00211160034A11800180EA
:1024400070470000B4000020B80000202DE9FF4FC5
:1024500083B01E46DDE9107A93468146FDF70CFFF6
:102460000446FEF723F9DFF8EC8098F80010491CC9
:10247000C9B288F80010012901D100F037F9FEF740
:1024800025F92046FDF7FCFEB9F8104009F10800D7
:1024900024B1B10500D4012405683AE0F00601D466
:1024A000002300E01023CDE9007A5A4609F120000C
:1024B0000499FFF707FEFDF7DFFE0446FEF7F6F886
:1024C00098F80010491E11F0FF0188F800100ED195
:1024D00000F01AF92048008848B1FEF7F7F82046C6
:1024E000FDF7CEFE07B0BDE8F04F00F0DBB8FEF719
:1024F000EDF807B02046BDE8F04FFDF7C1BEA96872
:102500006D685B4600974846049AFFF7F8FE641E24
:10251000A4B2002CF3D1FDF7AFFE0446FEF7C6F8D7
:1025200098F80010491E11F0FF0188F8001001D141
:1025300000F0EAF8FEF7CAF82046FDF7A1FE3004E5
:1025400001D4FEF7D9FB0021AAF8001007B0BDE8BE
:10255000F08F0000C80000208C0000200020074BF6
:10256000024600EB400103EB8101401C0A810A6036
:10257000C0B24A602028F4D3704700005C9100206C
:1025800010B5044690F83700FFF734FF074994F878
:10259000370009788842204603D1BDE8104000F09A
:1025A00023B8BDE8104000F003B80000AE000020E2
:1025B00090F837100B4A01EB410102EB8101002337
:1025C0000A8942B1521C0A810A68C0E903230A68D9
:1025D00010610860704701220A81C36003610860CE
:1025E000486070475C91002090F837100A4A01EB70
:1025F000410102EB810100230A893AB1521C0A8190
:10260000C3604A680261D0604860704701220A8155
:10261000C36003610860F7E75C91002010B5018991
:10262000002914D0012912D00024022907D0D0E9B2
:102630000013CA681461C1E90343D96005E0D0E919
:102640000012C1E90342C2E90314C0E9002110BD30
:1026500070B5044690F83700114900EB400001EBDB
:102660008001D4E90320002540B10B895B1E0B815A
:10267000C26092B110612561E56070BD2AB1088920
:10268000401E088115610A60F5E70D810D604D60FF
:1026900094F83700FFF7BEFEEDE74860EBE7000077
:1026A0005C91002010B5FDF7E7FD0B4A0021117089
:1026B0000B4A0A49116051F8902F521C0A60094ACE
:1026C0001168491C1160084A4FF080511160BDE843
:1026D0001040FDF7D5BD0000AF000020889000201D
:1026E00020010020F400002004ED00E0044810B5B3
:1026F0000078012803D1FEF733F80249086010BDC5
:10270000C8000020BC0000200A4810B5007800284E
:102710000ED1FEF725F808490968401A07490A68EA
:10272000824200D2086006490A68824200D20860EC
:1027300010BD0000C8000020BC000020C000002028
:10274000C400002070B5044614480078012824D144
:10275000FDF792FD0546FDF7A9FF2168B1B11048CC
:10276000814213D0886D10B1401E88650ED120893A
:1027700002280BD30B48007840B92046FFF74EFFE4
:102780002068416D09B9084909688165FDF79EFF18
:102790002846BDE87040FDF773BD70BDD000002035
:1027A000C08F0020C8000020CC000020034A002178
:1027B0001160034A1180018070470000D40000209E
:1027C000D80000202DE9F84F1F469046894606465E
:1027D000FDF752FD0090FDF769FF308A06F108050C
:1027E0004FF0000B50B1DFF8B8A09AF80000401C81
:1027F000C0B28AF80000012817D018E0346A601CC3
:1028000008D0641CC6E90848FDF760FF0098FDF792
:1028100037FD40E0FDF75AFF0098FDF731FD46F621
:10282000C55038800020BDE8F88FFFF75FFFFDF747
:102830004DFF0098FDF724FD5FEA895001D52C89F2
:1028400000E001242D680AE0A9686D6800231A469B
:102850003046CDF80080FFF752FD641EA4B2002C74
:10286000F2D1346AFDF708FD0546FDF71FFF9AF81F
:102870000010491E11F0FF018AF8001001D1FFF786
:1028800043FFFDF723FF2846FDF7FAFC5FEA094006
:1028900001D4FEF731FAA7F800B02046C3E70000E4
:1028A000C80000200EB5924E924D3068440004E0FE
:1028B000204601AA0021FFF705F828780128F7D162
:1028C00001A8FEF717FB8C4832680168914204D9D1
:1028D000B1FBF2F15FEA010B03D100680A21B0FB02
:1028E000F1FB4FF47A7942F210764FF00008FDF7D1
:1028F00037FF0290FDF7CCFE80490860FDF7BCFC75
:102900000546FDF7D3FE7E497E4C08682060C1F87D
:102910000080FDF7DBFE2846FDF7B2FC7A4823680D
:1029200002689A4228D97948824202D2304601216F
:1029300013E07748824202D248460A210DE07548EA
:10294000824202D26420014607E07348824202D2EA
:102950000A20494601E001203146B2FBF1F158431B
:10296000B0FBF1F06D49301A80B208806C490A88DA
:10297000824203D2088001E068480680FEF790FB9F
:102980000025FDF779FC0746FDF790FEDFF894A1DE
:10299000DAF800403CE0FDF76FFC0090FDF786FEA2
:1029A000614F3878401CC0B23870012801D1FFF760
:1029B0009DFEFDF78BFE0098FDF762FCD4F89C00AD
:1029C000C4E92780FDF758FC0090FDF76FFE3878CA
:1029D000401E10F0FF0038700CD1FFF795FE5348F1
:1029E000008838B1FDF772FE0098FDF749FCFFF74B
:1029F00059FE04E0FDF76AFE0098FDF741FC54F82B
:102A0000A00F0544FDF738FC0746FDF74FFE246A8A
:102A1000FDF75CFE3846FDF733FC002CBBD1E5B179
:102A20003A48854202D23746012013E038488542B1
:102A300002D24F460A200DE03648854202D2642772
:102A4000384607E03448854202D20A27484601E06A
:102A500001273046B5FBF0F501E000270125FDF721
:102A60000BFC0090FDF722FEDAF80040FDF72EFE89
:102A7000009821E0D4F8A0007843B0FBF5F080B2D4
:102A8000B04200D93046A4F88C00B4F88E108142D0
:102A900001D2A4F88E0004F1AC0201AB111D204656
:102AA000FEF7BEFDFDF7E8FB8246FDF7FFFDD4F81B
:102AB000C040FDF70BFE5046FDF7E2FB002CD9D1DC
:102AC0001B480178012904D180F8008001A8FEF795
:102AD00011FAFDF745FE0299401A16490A6882422A
:102AE00000D2086001AA00215846FEF7EBFEFEE680
:102AF00090420008EC000020A44200087C00002066
:102B0000E0000020E8000020E4000020801A060019
:102B100000093D00005A62020084D717DC00002043
:102B2000DE000020F8000020C80000208C000020FB
:102B3000DA000020F000002030B51D4A89B00021E5
:102B400011601C4A1F4C11601B4A11601B4A117016
:102B50001B4A1170226842B11B4A1C4D13682D6834
:102B6000AB4205D246F62C6108E046F62B6105E043
:102B7000174B1D781F2D04D346F62A61018009B03A
:102B800030BD032505910691CDE907501148126823
:102B900024680068CDE9020204910194187800903D
:102BA00000230D4A0DA11248FEF782FAE7E7000064
:102BB000E0000020E8000020E4000020EC000020FD
:102BC000DA000020944200089C420008A04200085D
:102BD0008C42000898420008A528000875432F4F32
:102BE000532D4949492053746174205461736B001B
:102BF000DC92002038B50446022531B16B46022232
:102C000000F03AFBBDF8000028B184F836502046A9
:102C1000FFF71EFD38BD032084F83600F7E70000FB
:102C2000074B0022C0F8BC20196829B1C0F8C010B9
:102C3000C1F8BC0018607047C0F8C020FAE7000077
:102C4000F8000020D0E92F2100234AB181B1C2F859
:102C5000C010C1F8BC20C0F8C030C0F8BC3070470C
:102C6000054A116009B1C1F8BC30C0F8C0307047E6
:102C7000C2F8C030F1E70000F8000020044A00214B
:102C80001160044A1180044A1160018070470000FD
:102C9000F8000020FC000020F400002070B50025A2
:102CA000056085604560C5600561456104468561D4
:102CB00029A0C4E907506562A562E5622563E5873E
:102CC0002564E565A4F86050002104F16400FFF775
:102CD000F1F96567A567C4F88050A4F88850002012
:102CE000C4F8845004EB8001401CCD6710F0FF0055
:102CF000F8D06564C4F8A450C4F8A850A56384F85B
:102D00008A50C4F8B050C4F8AC50A5874FF00040CA
:102D1000C4E9120525656565A565A4F88C50A4F87D
:102D20008E50C4F89050C4F894503434FDF718FD18
:102D3000C4E91905C4F88050C4F8845004F8015B54
:102D4000202004F8015B04F8015B04F8850B04A063
:102D500020C4C4E9005070BD3F5461736B00000093
:102D6000200000002DE9FC5F9946DDE90C759246D4
:102D70008B460446FDF780FA8046FDF797FC474EE8
:102D80003078401CC0B23070012801D1FFF7AEFC92
:102D9000FDF79CFC4046FDF773FA0CB94048046807
:102DA0000020288094F83600DFF8F880082852D2F6
:102DB000DFE800F00404262604042626CDE9007589
:102DC0004B465246594604F16400FFF77BF9FDF784
:102DD00053FA0446FDF76AFC3078401E10F0FF01FC
:102DE000317031D1FFF790FCB8F8000060B3FDF707
:102DF0006DFC2046FDF744FABDE8FC5FFFF752BCCE
:102E000094F834000228D9D153465A46214600206E
:102E10000097FFF774FAFDF72FFA0446FDF746FC1A
:102E20003078401E10F0FF01317001D1FFF76CFCCB
:102E3000FDF74CFC2046FDF723FA5FEA09402AD44F
:102E4000BDE8FC5FFDF758BFFDF740FC2046BDE83C
:102E5000FC5FFDF715BAFDF70FFA0446FDF726FCF7
:102E60003078401E10F0FF0131700CD1FFF74CFCA0
:102E7000B8F8000038B1FDF729FC2046FDF700FA4C
:102E8000FFF710FC04E0FDF721FC2046FDF7F8F900
:102E900046F62D602880BDE8FC9F0000C800002099
:102EA0001C0100208C00002010B5044600F050FAF0
:102EB00094F83610490704D42046BDE81040FFF7C7
:102EC0005FBB10BD2DE9F0410D460446FDF7D4F976
:102ED0000746FDF7EBFB00262E8094F83600082805
:102EE00064D2DFE800F0040404040D394955FDF70D
:102EF000EDFB3846FDF7C4F947F25310288037E060
:102F00002F4D2878401CC0B22870012801D1FFF74E
:102F1000EDFBFDF7DBFB3846FDF7B2F994F88A00CC
:102F2000401E10F0FF0084F88A0004D184F8366057
:102F30002046FFF7B9FFFDF79FF90446FDF7B6FB02
:102F40002878401E10F0FF01297001D1FFF7DCFB4B
:102F5000FDF7BCFB204609E094F88A00401E10F003
:102F6000FF0084F88A001BD101200EE0FDF788F9EC
:102F7000BDE8F041FDF7C0BE94F88A00401E10F095
:102F8000FF0084F88A000BD1022084F8360007E0A5
:102F900094F88A00401E10F0FF0084F88A0003D0E5
:102FA000FDF794FB3846E1E70320EEE7FDF78EFBE3
:102FB0003846FDF765F946F62D602880BDE8F081BA
:102FC000C8000020044808B50068FEF769FA6946A1
:102FD0000020FEF771F908BD1C0100202DE9F84F13
:102FE000984691468B460446FDF746F90646FDF79E
:102FF0005DFB594D2878401CC0B22870012801D1D2
:10300000FFF774FBFDF762FB3046FDF739F90CB9A9
:10301000524804680020524FC4F84090A8F80000BD
:1030200094F8360046F6C55A082872D2DFE800F058
:1030300033332F2F33332F2FFDF748FB2046FDF777
:103040001FF9FFF72FFB04E0FDF740FB2046FDF7DB
:1030500017F9A8F800A00020BDE8F88F761C666478
:10306000FDF70AF90446FDF721FB2878401E10F011
:10307000FF00287047D1FFF747FB3888F0B3FDF712
:1030800025FB2046FDF7FCF8FFF70CFB62E094F807
:103090003400072813D0666C701CDFD1FDF7ECF804
:1030A0000446FDF703FB2878401E10F0FF0028704F
:1030B000CAD1FFF729FB38880028C5D0BCE7002318
:1030C0001A4621461846CDF80090FFF718F9666CAD
:1030D000FDF7D2F80446FDF7E9FA2878401E10F013
:1030E000FF00287001D1FFF70FFBFDF7EFFA204634
:1030F000FDF7C6F85FEA0B402CD401E003E008E0DE
:10310000FDF7FAFD26E0FDF7E1FA2046FDF7B8F8F5
:1031100020E0FDF7B1F80446FDF7C8FA2878401E14
:1031200010F0FF0028700BD1FFF7EEFA388838B1A5
:10313000FDF7CCFA2046FDF7A3F8FFF7B3FA04E059
:10314000FDF7C4FA2046FDF79BF846F62D60A8F877
:103150000000002630467FE7C80000201C01002048
:103160008C0000202DE9F0410D460446FDF784F85F
:103170000746FDF79BFA334804B9046801683248F2
:103180008C4209D1017839B1FDF7A0FA3846FDF734
:1031900077F846F6635051E00021298094F8361004
:1031A0000126082943D2DFE801F0043032383A3AE8
:1031B0003A3A05460078401CC0B22870012801D177
:1031C000FFF794FAFDF782FA3846FDF759F8042024
:1031D00084F8360084F88A602046FFF739FAFDF754
:1031E0004BF80446FDF762FA2878401E10F0FF0104
:1031F000297001D1FFF788FAFDF768FA2046FDF73C
:103200003FF8BDE8F041FDF777BD052000E006205E
:1032100084F8360084F88A6005E00720F8E714F89F
:103220008A0F401C2070FDF751FA3846E7E7FDF79A
:103230004DFA3846FDF724F846F62D602880BDE8A3
:10324000F08100001C010020C800002010B5002003
:103250000246074B074C06E003EBC001401C0A6026
:103260008A80CA8080B221888842F5D310BD0000D0
:10327000B08C0020B8420008F0B5324C002647F26E
:103280007E252468042A08D0B1B32E4D082A2D6863
:103290000D440BD0C0E9135115E00A1B521E12F564
:1032A000803F2AD8521CC0E913120CE0826C0A44F9
:1032B000171B7F1E8F4201D2C26400E0C564C16C3F
:1032C0000A1B02658164204AC16C1288B1FBF2F5C9
:1032D00002FB15111D4A89B202EBC102918889B126
:1032E0001168F1B1CD6C2D1B0D65076DAF4212D980
:1032F0004D6965B12946F5E7FFE7C6640665C66115
:103300001D80F0BD46618661012110600BE0C0E9BF
:103310000561486105E08C6974B1C0E9051460611C
:1033200088619188491C9180D48889B28C4200D2EE
:10333000D180C2611E80F0BDC0E9051688611060B1
:10334000EFE7000000010020B8420008B08C002028
:1033500010B5C169002915D0002404650A688242AD
:1033600004D142690A6032B1946104E0D0E90523D6
:103370005A6102B1936144618461C461C464888804
:10338000401E888010BD000010B500200246064B8C
:10339000064C04E003EBC001401CCA8080B22188C7
:1033A0008842F7D310BD0000B08C0020B84200085E
:1033B0002DE9F05FFCF760FF0446FDF777F953480D
:1033C0000178491CC9B20170012901D1FFF78EF9BA
:1033D000FDF77CF92046FCF753FFFDF7C1F94C4E91
:1033E00083464C4930684FF00309401C306009881F
:1033F0000025B0FBF1F201FB1200474980B22F46D5
:1034000051F830404FF0040AC4B394F83600D4F8B1
:10341000148008284DD2DFE800F04C044C104C25F5
:103420004C32E06C3168421A2265884240D184F8FF
:1034300036702046FFF738FD3BE0E06C3168421AF9
:103440002265884234D1E765A4F86070FDF788F9F9
:1034500020642046FEF725FF2046FFF725FD84F86F
:10346000367020E0E06C3168421A226588421FD134
:1034700084F836A02046FFF76BFF1AE01CE0E06CF2
:103480003168421A2265884212D1E765A4F860705B
:10349000FDF766F920642046FEF703FF2046FFF79C
:1034A00057FF84F836A084F8359084F8347000E033
:1034B00001254446002DA7D0FDF752F91749A0EB8E
:1034C0000B000A68824200D20860FCF7D5FE044671
:1034D000FDF7ECF80D4A1078401E10F0FF01117056
:1034E0000DD1FFF711F90E48008840B1FDF7EEF855
:1034F0002046FCF7C5FEBDE8F05FFFF7D3B8FDF747
:10350000E5F82046BDE8F05FFCF7BABEC800002031
:1035100000010020B8420008B08C00200401002007
:103520008C0000201CB5084C00216B4601AA0846FF
:10353000FDF7BEFFBDF800000028F5D12078012876
:10354000F2D1FFF735FFEFE78000002030B50446E9
:103550001A4889B00025056019480560FFF776FE16
:10356000184A106840B11848184B01681B68994206
:1035700005D247F2132008E047F2122005E0144973
:103580000B781F2B04D347F21120208009B030BDE7
:103590000B2305950695CDE907340E4B006812689C
:1035A0001B68CDE902300192049508780090002351
:1035B000094A0AA10E48FDF77BFDE7E7000100205C
:1035C00004010020AC420008B4420008A0420008F8
:1035D000A8420008B04200082535000875432F4F67
:1035E000532D494949205469636B205461736B0022
:1035F000A493002030B52A4989B00023294A0B60E2
:10360000294C2A4915681DB12468B4FBF5F203E082
:1036100022680A24B2FBF4F20A601146244A274CBD
:10362000274D116023490B6023490B60002106E000
:1036300004EBC102491C9380D38089B213602A88AD
:103640009142F5D31F4C216841B11F491F4D0A68B3
:103650002D68AA4205D247F2483108E047F24731C7
:1036600005E01B4A15781F2D04D347F2463101802F
:1036700009B030BD0B2505930693CDE907500868C6
:10368000144924680968CDE9021004930194107864
:1036900000900023104A11A11648FDF709FDE7E745
:1036A00008010020BC420008A442000814010020C8
:1036B00018010020100100200C010020388F00208C
:1036C000CC420008C0420008C8420008A0420008DE
:1036D000BA420008C4420008B937000875432F4FAA
:1036E000532D4949492054696D6572205461736BAB
:1036F000000000006C94002070B5022280F82A209F
:10370000204A012913681ED0016AE1B11E4A1944FA
:10371000816112880025B1FBF2F402FB14121B4CEC
:1037200092B204EBC20214687CB1C91AC16111687B
:10373000D1B18C69E41ACC61C669A6420ED90C6974
:1037400044B12146F5E7416AE0E705614561106053
:1037500001200BE0C0E90451086105E04B6963B149
:10376000C0E90413186148619088401C9080D1889A
:1037700080B2814200D2D08070BDC0E9041548619A
:103780001060F1E710010020CC420008388F0020C3
:1037900010B500200246064B064C04E003EBC001C6
:1037A000401CCA8080B221888842F7D310BD000037
:1037B000388F0020CC4200081CB5DFF898B0DFF845
:1037C0009880DFF898A000216B4601AA0846FDF713
:1037D0006FFE6846FDF7CEFAFCF7C2FF0746D8F841
:1037E00000004FF00309401CC8F80000BBF80010AF
:1037F0000026B0FBF1F301FB1300194980B251F828
:103800003040ACB1A169D8F80000256981420FD1E0
:10381000204600F027F8208D022816D084F82A9040
:10382000A26812B12046E16890472C46002EE8D0ED
:10383000FCF796FFC41B6846FDF7F6FADAF80010AD
:10384000A142C0D2CAF80040BDE701212046FFF7DF
:1038500053FFE5E7CC420008100100200C010020D6
:10386000388F002010B5104A816900241288B1FBFE
:10387000F2F302FB13110D4A89B202EBC101026996
:103880000B68834203D10A602AB1546103E04369A3
:103890001A6102B15361012280F82A200461446157
:1038A0008888401E888010BDCC420008388F0020D8
:1038B000044A0029116801D0014300E081431160EE
:1038C0007047000030380240044A0029116801D0D6
:1038D000014300E08143116070470000443802401A
:1038E00070B5204B1968204C11F00C0104D0661003
:1038F000042903D0082903D004601BE0066019E006
:10390000184A121F1168C1F38055116801F03F0178
:1039100015B1B6FBF1F101E0B4FBF1F114681268E6
:10392000C4F388146143C2F30142521C5200B1FB3C
:10393000F2F1016019680F2202EA11110B4A545C7E
:103940000168E14041601C68072505EA9424145D84
:1039500021FA04F484601B6805EA5333D25CD14039
:10396000C16070BD083802400024F4000800002047
:10397000704710B5FCF7D4FFFCF7ECFFFDF704F837
:1039800000F0F8F8012010BD0CB500222749009284
:103990000192086840F4803008604FF4A043086842
:1039A00000F4003001900098401C0090019810B97C
:1039B00000989842F3D10868800334D50120019023
:1039C0001A484030026842F080520260184802688B
:1039D00042F4404202601548083002680260026802
:1039E00042F400420260026842F4A0520260031FE7
:1039F000104A1A600A6842F080720A600A689201EE
:103A0000FCD50D4940F205720A60016821F00301FE
:103A10000160016841F0020101600168C1F38101A8
:103A20000229FAD10CBD01920CBD00000038024001
:103A30000070004008544007003C024070B51E482A
:103A40000078012837D1FCF717FC0546FCF72EFE5D
:103A50001A4C2078401CC1B22170012901D1FEF717
:103A600045FEFCF733FE2846FCF70AFCFDF7EEF8AE
:103A7000FCF702FC0546FCF719FE2078401E10F00A
:103A8000FF0121700CD1FEF73FFE0D48008838B1D0
:103A9000FCF71CFE2846FCF7F3FBFEF703FE04E0F0
:103AA000FCF714FE2846FCF7EBFBFDF781FFBDE8B1
:103AB0007040FDF7DBB870BD80000020C80000201A
:103AC0008C000020124810B5016841F470010160BB
:103AD0001048016841F0010101600E4A00210832DE
:103AE000116002680C4B1A400260031D0B4A1A60F9
:103AF000026822F48022026006480C300160FFF761
:103B000043FF03494FF000608039086010BD00009A
:103B100088ED00E000380240FFFFF6FE1030002480
:103B20004FF0E020016921F0040101610D490E4AC6
:103B30000F4B0968B1FBF2F10C4AC9B2117059433D
:103B40004FF47A73B1FBF3F101235380026942F021
:103B500002020261491E4161016941F001010161F6
:103B6000704700001800002000127A0000000020BA
:103B700040420F00F0B5012187B00846FFF798FEDC
:103B800001210846FFF794FE01211020FFF79CFE5B
:103B9000214F072209213846FCF7ACFE07220A21F3
:103BA0003846FCF7A7FE02258DF8045078158DF8ED
:103BB0000550002400908DF8064001268DF807601E
:103BC00069463846FCF75AFE8DF8045068028DF8B5
:103BD000055000908DF806408DF80760694638461C
:103BE000FCF74CFE4FF4E130ADF80C400290ADF81C
:103BF0000E40ADF81040ADF814400C20074CADF865
:103C0000120002A9204600F01DF80121204600F014
:103C100007F807B0F0BD00000000024000100140AE
:103C20000029818902D041F4005101E021F40051C2
:103C3000818170470246002012880A4200D001208C
:103C4000704700007FB50446008A0D46C98820F4FD
:103C5000405001432182A08941F20C618843A98828
:103C60002A8911436A8902431143A181A08A20F461
:103C70004071A8890843A0826846FFF731FE1A48C0
:103C8000844202D01948844201D1039800E002988E
:103C9000A189090400EBC00101EB0010296801D5DE
:103CA000490000E08900B0FBF1F06422B0FBF2F1C2
:103CB00009010B096FF018056B4300EB8300A38922
:103CC0001D044FF0320306D503EBC000B0FBF2F049
:103CD00000F0070005E003EB0010B0FBF2F000F08D
:103CE0000F00084320817FBD0010014000140140F7
:103CF000C1F3080181807047FEE7704770B5074D3A
:103D0000044640212846FFF795FF0028F9D0E1B28C
:103D10002846FFF7EDFF204670BD0000001001406F
:103D20000EB54FF47A7402AB01AA69462848FDF734
:103D300077FC0199009A642048438B18B0FBF3F399
:103D400024A0FCF7B1FA02AB01AA69462F48FDF79F
:103D500067FC0199009A642048438B18B0FBF3F389
:103D60002BA0FCF7A1FA02AB01AA69463648FDF781
:103D700057FC0199009A642048438B18B0FBF3F379
:103D800032A0FCF791FA02AB01AA69463D48FDF763
:103D900047FC0199009A642048438B18B0FBF3F369
:103DA00039A0FCF781FA02AB01AA69464448FDF745
:103DB00037FC0199009A642048438B18B0FBF3F359
:103DC00040A0FCF771FA2046FCF7D2FCABE70000FC
:103DD000F00100205461736B557361727431544368
:103DE0004220202020202020202020207573656480
:103DF0002F667265653A25642F25642020757361EE
:103E000067653A252525640D0A000000B8040020E6
:103E10005461736B4C656431544342202020202050
:103E20002020202020202020757365642F66726575
:103E3000653A25642F2564202075736167653A25EE
:103E40002525640D0A000000800600205461736B74
:103E50004C65643254434220202020202020202022
:103E600020202020757365642F667265653A25648D
:103E70002F2564202075736167653A252525640D1B
:103E80000A000000480800205461736B4C656433DD
:103E900054434220202020202020202020202020A9
:103EA000757365642F667265653A25642F256420F5
:103EB0002075736167653A252525640D0A000000A9
:103EC000100A00205461736B4865616454434220BA
:103ED00020202020202020202020202075736564B1
:103EE0002F667265653A25642F25642020757361FD
:103EF00067653A252525640D0A000000094C4FF43A
:103F0000FA756E0008212046FCF706FD2846FCF7EE
:103F10002FFC08212046FCF7FDFC3046FCF728FC6E
:103F2000F0E7000000100240094C4FF47A756E1063
:103F300010212046FCF7F0FC2846FCF719FC102164
:103F40002046FCF7E7FC3046FCF712FCF0E70000E7
:103F500000100240084C4FF4007529462046FCF73B
:103F6000DBFCFA20FCF704FC29462046FCF7D2FCD7
:103F7000FA20FCF7FDFBF0E70018024000B58BB01B
:103F8000FCF776F909A8FCF785FD002009A90322B2
:103F900005900690CDE90721094980230A6BCDE9F8
:103FA00003301E208DE807000023064A06A10948B9
:103FB000FDF77EF809A8FCF771FF0BB0002000BDEB
:103FC000D80C0020D93F000853746172742020542B
:103FD00061736B00280100202DE9F04F8BB0FCF7D6
:103FE000FBFAFFF79DFDFFF7C4FCE8B1FCF702FD0B
:103FF000FCF7E4FC09A8FCF7F9FFFCF739FB09AA78
:104000000A210120FCF7E4FEFCF736F90446FCF730
:104010004DFBDFF8489199F80000401CC1B289F8C7
:104020000010012904D005E04DA0FCF73DF9FEE7A2
:10403000FEF75CFBFCF74AFB2046FCF721F9002465
:104040000326CDE9064609AD4FF00C0B4A4A089508
:1040500005940A208DE805084FF0800A4648CDE90E
:1040600003A42346454A46A1C838FDF721F8CDE907
:1040700006464FF0060846490895059407208DE846
:10408000030140274248CDE903740023414A42A17D
:10409000C838FDF70DF8CDE9064642490895059464
:1040A00008208DE803013F48CDE9037400233E4A10
:1040B0003EA1C838FCF7FCFFCDE906463E4908950D
:1040C000059409208DE803013B48CDE903740023E2
:1040D0003A4A3BA1C838FCF7EBFFCDE906463B4A1C
:1040E000089505940B208DE805083848CDE903A410
:1040F0000023374A37A1C838FCF7DAFF09A9384846
:10410000FDF7DAF8BDF8240080B136A0FCF7CCF852
:10411000FCF7B2F80446FCF7C9FA99F80000401E13
:1041200010F0FF0189F8001002D010E033A0EDE795
:10413000FEF7EAFA3748008848B1FCF7C7FA20468C
:10414000FCF79EF8FEF7AEFA0BB0BDE8F08FFCF777
:10415000BDFA2046FCF794F8F6E70000C8000020FE
:10416000CFB5CDB3D3B2BCFEB3F5CABCBBAFCAA703
:10417000B0DCA3A10D0A0000B8020020194200081B
:1041800055736172743120205461736B000000001C
:1041900080050020FD3E00086C65643120205461DC
:1041A000736B000048070020293F00086C656432EB
:1041B00020205461736B000010090020553F000857
:1041C0006C65643320205461736B0000D80A0020B2
:1041D000213D00084865616420205461736B000034
:1041E00028010020BFAACABCC8CECEF1C9BEB3FD0B
:1041F000B3C9B9A621200D0A00000000BFAACABC9D
:10420000C8CECEF1C9BEB3FDB3C9B9A6A3A10D0AEC
:10421000000000008C000020064C64254FF47A76E4
:104220002088B0FBF5F104A0FCF73EF83046FCF71F
:104230009FFAF5E7DC000020435055B5C4CAB9D356
:10424000C3C2CACEAAA3BA2564252520200D0A0020
:104250004FF04070E1EE100A70470000307B002004
:104260000C00000080000000307D00200A000000EB
:10427000707E00200C000000800000007080002094
:104280008000000064000000708200200B0000002D
:104290000A000000B08800200C0000008000000030
:1042A00040000000E80300000A000000B08A00207F
:1042B0000C0000008000000011000B000A0000004C
:1042C000388D00200C00000080000000110000006C
:1042D000F04200080000002024010000C401000892
:1042E000144400082401002074A80000E001000824
:1042F00000000000000000000000000001020304B4
:104300000102030406070809007A030A00000000FE
:104310000000000001020304060708090000000075
:10432000000000000000000000000000000000008D
:10433000000000000000000000000000000000007D
:10434000000000000000000000000000000000006D
:10435000000000000000000000000000000000005D
:10436000000000000000000000000000000000004D
:10437000000000000000000000000000000000003D
:10438000000000000000000000000000000000002D
:10439000000000000000000000000000000000001D
:1043A000000000000000000000000000000000000D
:1043B00000000000000000000000000000000000FD
:1043C00000000000000000000000000000000000ED
:1043D00000000000000000000000000000000000DD
:1043E00000000000000000000000000000000000CD
:1043F00000000000000000000000000000000000BD
:1044000000000000000000000000000000000000AC
:0444100000000000A8
:040000050800018965
:00000001FF
